{"abi":[{"type":"constructor","inputs":[{"name":"_owner","type":"address","internalType":"address"},{"name":"_sequencerFeed","type":"address","internalType":"address"},{"name":"_btcUsdPairId","type":"bytes32","internalType":"bytes32"},{"name":"_btcUsdFeed","type":"address","internalType":"address"},{"name":"_ethUsdPairId","type":"bytes32","internalType":"bytes32"},{"name":"_ethUsdFeed","type":"address","internalType":"address"},{"name":"_trustedSettlement","type":"address","internalType":"address"}],"stateMutability":"nonpayable"},{"type":"function","name":"MAX_STALENESS","inputs":[],"outputs":[{"name":"","type":"uint256","internalType":"uint256"}],"stateMutability":"view"},{"type":"function","name":"OPTION_DOWN","inputs":[],"outputs":[{"name":"","type":"uint256","internalType":"uint256"}],"stateMutability":"view"},{"type":"function","name":"OPTION_UP","inputs":[],"outputs":[{"name":"","type":"uint256","internalType":"uint256"}],"stateMutability":"view"},{"type":"function","name":"SEQUENCER_GRACE_PERIOD","inputs":[],"outputs":[{"name":"","type":"uint256","internalType":"uint256"}],"stateMutability":"view"},{"type":"function","name":"authorizedCallers","inputs":[{"name":"","type":"address","internalType":"address"}],"outputs":[{"name":"","type":"bool","internalType":"bool"}],"stateMutability":"view"},{"type":"function","name":"configureFeed","inputs":[{"name":"pairId","type":"bytes32","internalType":"bytes32"},{"name":"feed","type":"address","internalType":"address"}],"outputs":[],"stateMutability":"nonpayable"},{"type":"function","name":"getPrice","inputs":[{"name":"pairId","type":"bytes32","internalType":"bytes32"}],"outputs":[{"name":"","type":"int256","internalType":"int256"}],"stateMutability":"view"},{"type":"function","name":"markets","inputs":[{"name":"","type":"uint256","internalType":"uint256"}],"outputs":[{"name":"settlement","type":"address","internalType":"address"},{"name":"pairId","type":"bytes32","internalType":"bytes32"},{"name":"strikePrice","type":"int256","internalType":"int256"},{"name":"resolved","type":"bool","internalType":"bool"}],"stateMutability":"view"},{"type":"function","name":"owner","inputs":[],"outputs":[{"name":"","type":"address","internalType":"address"}],"stateMutability":"view"},{"type":"function","name":"priceFeeds","inputs":[{"name":"","type":"bytes32","internalType":"bytes32"}],"outputs":[{"name":"","type":"address","internalType":"address"}],"stateMutability":"view"},{"type":"function","name":"registerMarket","inputs":[{"name":"marketId","type":"uint256","internalType":"uint256"},{"name":"settlement","type":"address","internalType":"address"},{"name":"pairId","type":"bytes32","internalType":"bytes32"},{"name":"strikePrice","type":"int256","internalType":"int256"}],"outputs":[],"stateMutability":"nonpayable"},{"type":"function","name":"renounceOwnership","inputs":[],"outputs":[],"stateMutability":"nonpayable"},{"type":"function","name":"resolve","inputs":[{"name":"marketId","type":"uint256","internalType":"uint256"}],"outputs":[],"stateMutability":"nonpayable"},{"type":"function","name":"sequencerFeed","inputs":[],"outputs":[{"name":"","type":"address","internalType":"contract AggregatorV3Interface"}],"stateMutability":"view"},{"type":"function","name":"setAuthorizedCaller","inputs":[{"name":"caller","type":"address","internalType":"address"},{"name":"authorized","type":"bool","internalType":"bool"}],"outputs":[],"stateMutability":"nonpayable"},{"type":"function","name":"transferOwnership","inputs":[{"name":"newOwner","type":"address","internalType":"address"}],"outputs":[],"stateMutability":"nonpayable"},{"type":"function","name":"trustedSettlement","inputs":[],"outputs":[{"name":"","type":"address","internalType":"address"}],"stateMutability":"view"},{"type":"event","name":"AuthorizedCallerSet","inputs":[{"name":"caller","type":"address","indexed":true,"internalType":"address"},{"name":"authorized","type":"bool","indexed":false,"internalType":"bool"}],"anonymous":false},{"type":"event","name":"FeedConfigured","inputs":[{"name":"pairId","type":"bytes32","indexed":true,"internalType":"bytes32"},{"name":"feed","type":"address","indexed":false,"internalType":"address"}],"anonymous":false},{"type":"event","name":"MarketRegistered","inputs":[{"name":"marketId","type":"uint256","indexed":true,"internalType":"uint256"},{"name":"settlement","type":"address","indexed":true,"internalType":"address"},{"name":"pairId","type":"bytes32","indexed":true,"internalType":"bytes32"},{"name":"strikePrice","type":"int256","indexed":false,"internalType":"int256"}],"anonymous":false},{"type":"event","name":"MarketResolved","inputs":[{"name":"marketId","type":"uint256","indexed":true,"internalType":"uint256"},{"name":"winningOption","type":"uint256","indexed":false,"internalType":"uint256"},{"name":"settlementPrice","type":"int256","indexed":false,"internalType":"int256"},{"name":"strikePrice","type":"int256","indexed":false,"internalType":"int256"}],"anonymous":false},{"type":"event","name":"OwnershipTransferred","inputs":[{"name":"previousOwner","type":"address","indexed":true,"internalType":"address"},{"name":"newOwner","type":"address","indexed":true,"internalType":"address"}],"anonymous":false},{"type":"error","name":"AlreadyResolved","inputs":[]},{"type":"error","name":"FeedNotConfigured","inputs":[]},{"type":"error","name":"MarketNotExpired","inputs":[]},{"type":"error","name":"MarketNotRegistered","inputs":[]},{"type":"error","name":"OwnableInvalidOwner","inputs":[{"name":"owner","type":"address","internalType":"address"}]},{"type":"error","name":"OwnableUnauthorizedAccount","inputs":[{"name":"account","type":"address","internalType":"address"}]},{"type":"error","name":"SequencerDown","inputs":[]},{"type":"error","name":"SequencerGracePeriod","inputs":[]},{"type":"error","name":"StalePrice","inputs":[]},{"type":"error","name":"TrustedSettlementMismatch","inputs":[]},{"type":"error","name":"ZeroTrustedSettlement","inputs":[]}],"bytecode":{"object":"0x60c0346101d757601f610edc38819003918201601f19168301916001600160401b038311848410176101db5780849260e0946040528339810103126101d757610047816101ef565b90610054602082016101ef565b604082015190610066606084016101ef565b9360808401519461008560c061007e60a088016101ef565b96016101ef565b916001600160a01b03169081156101c4575f80546001600160a01b031981168417825560405193916001600160a01b03909116907f8be0079c531659141344cd1fd0a4f28419497f9722a3daafe3b4186f6b6457e09080a36001600160a01b038316156101b55760a0929092526001600160a01b039283166080525f84815260016020908152604090912080546001600160a01b031916939094169283179093559081525f516020610ebc5f395f51905f529190a26001600160a01b031680610178575b604051610cb8908161020482396080518181816108010152610b36015260a05181818161012401526105440152f35b5f8281526001602090815260409182902080546001600160a01b0319168417905590519182525f516020610ebc5f395f51905f5291a25f80610149565b634d5bf2ff60e11b5f5260045ffd5b631e4fbdf760e01b5f525f60045260245ffd5b5f80fd5b634e487b7160e01b5f52604160045260245ffd5b51906001600160a01b03821682036101d75756fe60806040526004361015610011575f80fd5b5f5f3560e01c806327c0c7731461085e57806331d98b3f146108305780633b521cb6146107ec578063454bbd29146107665780634f896d4f146105b2578063536fff6c146105735780635671cc2f1461052e578063715018a6146104d45780638da5cb5b146104ad578063b1283e7714610453578063b3ecf7be14610437578063c6c3f71e14610404578063caca95a4146103ff578063d307b6db146103ff578063e61ee230146103e3578063f2fde38b1461035d5763fdf98cc4146100d5575f80fd5b3461035a57608036600319011261035a576004356100f16108d7565b6044359160643591338552600360205260ff6040862054168015610347575b15610313576001600160a01b0390811692907f000000000000000000000000000000000000000000000000000000000000000016830361030457838552600160205260408520546001600160a01b0316156102f55760405163eb44fdd360e01b81526004810183905261016081602481875afa9081156102ea5786916102bb575b508167ffffffffffffffff606083015116159182156102af575b821561029c575b505061028d576040516080810181811067ffffffffffffffff821117610279579161026f6020927f6112cac5f6d8a740058e7fd045bf61599fe84f98fd926231654c1c44d54a47689460405286815260038482018981526040830185815260608401918c8352898d526002885260408d209460018060a01b039060018060a01b03905116166bffffffffffffffffffffffff60a01b86541617855551600185015551600284015551151591019060ff801983541691151516179055565b604051908152a480f35b634e487b7160e01b87526041600452602487fd5b631d5a9fa160e01b8552600485fd5b6101200151600f0b14159050815f6101b2565b805187141592506101ab565b6102dd91506101603d81116102e3575b6102d5818361091f565b8101906109a2565b5f610191565b503d6102cb565b6040513d88823e3d90fd5b633a2a64d160e11b8552600485fd5b6320ca7f2f60e21b8552600485fd5b60405162461bcd60e51b815260206004820152600c60248201526b1d5b985d5d1a1bdc9a5e995960a21b6044820152606490fd5b5084546001600160a01b03163314610110565b80fd5b503461035a57602036600319011261035a576103776108ed565b61037f610a8e565b6001600160a01b031680156103cf5781546001600160a01b03198116821783556001600160a01b03167f8be0079c531659141344cd1fd0a4f28419497f9722a3daafe3b4186f6b6457e08380a380f35b631e4fbdf760e01b82526004829052602482fd5b503461035a578060031936011261035a57602060405160018152f35b610903565b503461035a57602036600319011261035a57602090600435815260018252604060018060a01b0391205416604051908152f35b503461035a578060031936011261035a57602060405160028152f35b503461035a57602036600319011261035a576040608091600435815260026020522060018060a01b038154169060018101549060ff6003600283015492015416916040519384526020840152604083015215156060820152f35b503461035a578060031936011261035a57546040516001600160a01b039091168152602090f35b503461035a578060031936011261035a576104ed610a8e565b80546001600160a01b03198116825581906001600160a01b03167f8be0079c531659141344cd1fd0a4f28419497f9722a3daafe3b4186f6b6457e08280a380f35b503461035a578060031936011261035a576040517f00000000000000000000000000000000000000000000000000000000000000006001600160a01b03168152602090f35b503461035a57602036600319011261035a5760209060ff906040906001600160a01b0361059e6108ed565b168152600384522054166040519015158152f35b5034610703576020366003190112610703576004355f81815260026020526040902080546001600160a01b0316801561075757600382019060ff8254166107485760405163eb44fdd360e01b81526004810185905261016081602481855afa90811561073d5767ffffffffffffffff916080915f9161071e575b50015116421061070f5761063e610b21565b600261064d6001850154610bdb565b930192835481135f14610707576001915b803b15610703575f80916064604051809481936307981d4560e41b83528b600484015287602484015260ff891660448401525af190816106ee575b506106a2578580f35b7fab1ebf3a7b7cab86e6d0daffcc3e347d42655bf4d86894ad5a1b880d3d76011093606093600160ff19825416179055549060405192835260208301526040820152a25f808080808580f35b6106fb9197505f9061091f565b5f955f610699565b5f80fd5b60029161065e565b63671eb0c560e01b5f5260045ffd5b61073791506101603d81116102e3576102d5818361091f565b5f61062c565b6040513d5f823e3d90fd5b6336ab81e160e11b5f5260045ffd5b631d5a9fa160e01b5f5260045ffd5b346107035760403660031901126107035761077f6108ed565b6024359081151590818303610703577f1eff62a53441c7d0125c22f2a9a324e206b34efa41e19469d7efb9bb703d21a3916107e36020926107be610a8e565b60018060a01b031694855f526003845260405f209060ff801983541691151516179055565b604051908152a2005b34610703575f366003190112610703576040517f00000000000000000000000000000000000000000000000000000000000000006001600160a01b03168152602090f35b3461070357602036600319011261070357610849610b21565b6020610856600435610bdb565b604051908152f35b34610703576040366003190112610703576004357f2f2abe54368524e8f054985f3340fceb4bbe2bf8c945e37cfacff5abc05c6ab0602061089d6108d7565b6108a5610a8e565b5f8481526001835260409081902080546001600160a01b0319166001600160a01b0393909316928317905551908152a2005b602435906001600160a01b038216820361070357565b600435906001600160a01b038216820361070357565b34610703575f366003190112610703576020604051610e108152f35b90601f8019910116810190811067ffffffffffffffff82111761094157604052565b634e487b7160e01b5f52604160045260245ffd5b51906fffffffffffffffffffffffffffffffff8216820361070357565b519067ffffffffffffffff8216820361070357565b5190811515820361070357565b519081600f0b820361070357565b90816101609103126107035760405190610160820182811067ffffffffffffffff82111761094157604052805182526109dd60208201610955565b60208301526109ee60408201610955565b60408301526109ff60608201610972565b6060830152610a1060808201610972565b608083015260a081015163ffffffff811681036107035760a083015260c081015160ff8116810361070357610a85916101409160c0850152610a5460e08201610987565b60e0850152610a666101008201610987565b610100850152610a796101208201610994565b61012085015201610994565b61014082015290565b5f546001600160a01b03163303610aa157565b63118cdaa760e01b5f523360045260245ffd5b519069ffffffffffffffffffff8216820361070357565b908160a091031261070357610adf81610ab4565b91602082015191604081015191610afd608060608401519301610ab4565b90565b91908203918211610b0d57565b634e487b7160e01b5f52601160045260245ffd5b604051633fabe5a360e21b815260a0816004817f00000000000000000000000000000000000000000000000000000000000000006001600160a01b03165afa90811561073d575f905f92610ba6575b50610b9857610b82610e109142610b00565b10610b8957565b632d7512d760e21b5f5260045ffd5b62032b3d60e81b5f5260045ffd5b9050610bca915060a03d60a011610bd4575b610bc2818361091f565b810190610acb565b509250505f610b70565b503d610bb8565b5f908152600160205260409020546001600160a01b03168015610c735760a060049160405192838092633fabe5a360e21b82525afa801561073d575f915f91610c44575b50610c2d610e109142610b00565b11610c355790565b630cd5fa0760e11b5f5260045ffd5b610c2d9250610e109150610c669060a03d60a011610bd457610bc2818361091f565b5094925050929150610c1f565b633a2a64d160e11b5f5260045ffdfea2646970667358221220c5fa89a19c96340c651d1234a6afe108f3ebea9185f3a3b738d95ee4aff7f0e264736f6c634300081d00332f2abe54368524e8f054985f3340fceb4bbe2bf8c945e37cfacff5abc05c6ab0","linkReferences":{}},"methodIdentifiers":{"MAX_STALENESS()":"caca95a4","OPTION_DOWN()":"b3ecf7be","OPTION_UP()":"e61ee230","SEQUENCER_GRACE_PERIOD()":"d307b6db","authorizedCallers(address)":"536fff6c","configureFeed(bytes32,address)":"27c0c773","getPrice(bytes32)":"31d98b3f","markets(uint256)":"b1283e77","owner()":"8da5cb5b","priceFeeds(bytes32)":"c6c3f71e","registerMarket(uint256,address,bytes32,int256)":"fdf98cc4","renounceOwnership()":"715018a6","resolve(uint256)":"4f896d4f","sequencerFeed()":"3b521cb6","setAuthorizedCaller(address,bool)":"454bbd29","transferOwnership(address)":"f2fde38b","trustedSettlement()":"5671cc2f"},"id":31}