{"abi":[{"type":"constructor","inputs":[{"name":"_usdt","type":"address","internalType":"contract IERC20"},{"name":"initialOwner","type":"address","internalType":"address"},{"name":"_platformFeeBps","type":"uint256","internalType":"uint256"},{"name":"_makerFeeBps","type":"uint256","internalType":"uint256"}],"stateMutability":"nonpayable"},{"type":"function","name":"accumulateRebate","inputs":[{"name":"dmm","type":"address","internalType":"address"},{"name":"amount","type":"uint256","internalType":"uint256"}],"outputs":[],"stateMutability":"nonpayable"},{"type":"function","name":"addDMM","inputs":[{"name":"dmm","type":"address","internalType":"address"}],"outputs":[],"stateMutability":"nonpayable"},{"type":"function","name":"autocycler","inputs":[],"outputs":[{"name":"","type":"address","internalType":"address"}],"stateMutability":"view"},{"type":"function","name":"claimRebate","inputs":[],"outputs":[],"stateMutability":"nonpayable"},{"type":"function","name":"createMarket","inputs":[{"name":"pairId","type":"bytes32","internalType":"bytes32"},{"name":"duration","type":"uint256","internalType":"uint256"},{"name":"strikePrice","type":"int256","internalType":"int256"}],"outputs":[{"name":"marketId","type":"uint256","internalType":"uint256"}],"stateMutability":"nonpayable"},{"type":"function","name":"dmmCount","inputs":[],"outputs":[{"name":"","type":"uint256","internalType":"uint256"}],"stateMutability":"view"},{"type":"function","name":"dmmRebateAccumulated","inputs":[{"name":"","type":"address","internalType":"address"}],"outputs":[{"name":"","type":"uint256","internalType":"uint256"}],"stateMutability":"view"},{"type":"function","name":"dmmRebateBps","inputs":[],"outputs":[{"name":"","type":"uint256","internalType":"uint256"}],"stateMutability":"view"},{"type":"function","name":"emergencyWithdraw","inputs":[{"name":"token","type":"address","internalType":"address"},{"name":"amount","type":"uint256","internalType":"uint256"}],"outputs":[],"stateMutability":"nonpayable"},{"type":"function","name":"enterPosition","inputs":[{"name":"marketId","type":"uint256","internalType":"uint256"},{"name":"option","type":"uint8","internalType":"uint8"},{"name":"amount","type":"uint256","internalType":"uint256"}],"outputs":[],"stateMutability":"nonpayable"},{"type":"function","name":"getMarket","inputs":[{"name":"marketId","type":"uint256","internalType":"uint256"}],"outputs":[{"name":"","type":"tuple","internalType":"struct UpDownSettlement.Market","components":[{"name":"pairId","type":"bytes32","internalType":"bytes32"},{"name":"totalUp","type":"uint128","internalType":"uint128"},{"name":"totalDown","type":"uint128","internalType":"uint128"},{"name":"startTime","type":"uint64","internalType":"uint64"},{"name":"endTime","type":"uint64","internalType":"uint64"},{"name":"duration","type":"uint32","internalType":"uint32"},{"name":"winner","type":"uint8","internalType":"uint8"},{"name":"resolved","type":"bool","internalType":"bool"},{"name":"settled","type":"bool","internalType":"bool"},{"name":"strikePrice","type":"int128","internalType":"int128"},{"name":"settlementPrice","type":"int128","internalType":"int128"}]}],"stateMutability":"view"},{"type":"function","name":"isDMM","inputs":[{"name":"","type":"address","internalType":"address"}],"outputs":[{"name":"","type":"bool","internalType":"bool"}],"stateMutability":"view"},{"type":"function","name":"makerFeeBps","inputs":[],"outputs":[{"name":"","type":"uint256","internalType":"uint256"}],"stateMutability":"view"},{"type":"function","name":"markets","inputs":[{"name":"","type":"uint256","internalType":"uint256"}],"outputs":[{"name":"pairId","type":"bytes32","internalType":"bytes32"},{"name":"totalUp","type":"uint128","internalType":"uint128"},{"name":"totalDown","type":"uint128","internalType":"uint128"},{"name":"startTime","type":"uint64","internalType":"uint64"},{"name":"endTime","type":"uint64","internalType":"uint64"},{"name":"duration","type":"uint32","internalType":"uint32"},{"name":"winner","type":"uint8","internalType":"uint8"},{"name":"resolved","type":"bool","internalType":"bool"},{"name":"settled","type":"bool","internalType":"bool"},{"name":"strikePrice","type":"int128","internalType":"int128"},{"name":"settlementPrice","type":"int128","internalType":"int128"}],"stateMutability":"view"},{"type":"function","name":"nextMarketId","inputs":[],"outputs":[{"name":"","type":"uint256","internalType":"uint256"}],"stateMutability":"view"},{"type":"function","name":"owner","inputs":[],"outputs":[{"name":"","type":"address","internalType":"address"}],"stateMutability":"view"},{"type":"function","name":"paused","inputs":[],"outputs":[{"name":"","type":"bool","internalType":"bool"}],"stateMutability":"view"},{"type":"function","name":"platformFeeBps","inputs":[],"outputs":[{"name":"","type":"uint256","internalType":"uint256"}],"stateMutability":"view"},{"type":"function","name":"relayer","inputs":[],"outputs":[{"name":"","type":"address","internalType":"address"}],"stateMutability":"view"},{"type":"function","name":"removeDMM","inputs":[{"name":"dmm","type":"address","internalType":"address"}],"outputs":[],"stateMutability":"nonpayable"},{"type":"function","name":"renounceOwnership","inputs":[],"outputs":[],"stateMutability":"nonpayable"},{"type":"function","name":"resolve","inputs":[{"name":"marketId","type":"uint256","internalType":"uint256"},{"name":"settlementPrice","type":"int256","internalType":"int256"},{"name":"winner","type":"uint8","internalType":"uint8"}],"outputs":[],"stateMutability":"nonpayable"},{"type":"function","name":"resolver","inputs":[],"outputs":[{"name":"","type":"address","internalType":"address"}],"stateMutability":"view"},{"type":"function","name":"setAutocycler","inputs":[{"name":"a","type":"address","internalType":"address"}],"outputs":[],"stateMutability":"nonpayable"},{"type":"function","name":"setDmmRebateBps","inputs":[{"name":"bps","type":"uint256","internalType":"uint256"}],"outputs":[],"stateMutability":"nonpayable"},{"type":"function","name":"setFees","inputs":[{"name":"platformBps","type":"uint256","internalType":"uint256"},{"name":"makerBps","type":"uint256","internalType":"uint256"}],"outputs":[],"stateMutability":"nonpayable"},{"type":"function","name":"setPaused","inputs":[{"name":"p","type":"bool","internalType":"bool"}],"outputs":[],"stateMutability":"nonpayable"},{"type":"function","name":"setRelayer","inputs":[{"name":"a","type":"address","internalType":"address"}],"outputs":[],"stateMutability":"nonpayable"},{"type":"function","name":"setResolver","inputs":[{"name":"a","type":"address","internalType":"address"}],"outputs":[],"stateMutability":"nonpayable"},{"type":"function","name":"totalAccumulatedFees","inputs":[],"outputs":[{"name":"","type":"uint256","internalType":"uint256"}],"stateMutability":"view"},{"type":"function","name":"transferOwnership","inputs":[{"name":"newOwner","type":"address","internalType":"address"}],"outputs":[],"stateMutability":"nonpayable"},{"type":"function","name":"usdt","inputs":[],"outputs":[{"name":"","type":"address","internalType":"contract IERC20"}],"stateMutability":"view"},{"type":"function","name":"withdrawFees","inputs":[{"name":"amount","type":"uint256","internalType":"uint256"}],"outputs":[],"stateMutability":"nonpayable"},{"type":"function","name":"withdrawSettlement","inputs":[{"name":"marketId","type":"uint256","internalType":"uint256"}],"outputs":[],"stateMutability":"nonpayable"},{"type":"event","name":"DMMAdded","inputs":[{"name":"dmm","type":"address","indexed":true,"internalType":"address"}],"anonymous":false},{"type":"event","name":"DMMRemoved","inputs":[{"name":"dmm","type":"address","indexed":true,"internalType":"address"}],"anonymous":false},{"type":"event","name":"DmmRebateBpsUpdated","inputs":[{"name":"bps","type":"uint256","indexed":false,"internalType":"uint256"}],"anonymous":false},{"type":"event","name":"FeesUpdated","inputs":[{"name":"platformFeeBps","type":"uint256","indexed":false,"internalType":"uint256"},{"name":"makerFeeBps","type":"uint256","indexed":false,"internalType":"uint256"}],"anonymous":false},{"type":"event","name":"MarketCreated","inputs":[{"name":"marketId","type":"uint256","indexed":true,"internalType":"uint256"},{"name":"pairId","type":"bytes32","indexed":true,"internalType":"bytes32"},{"name":"duration","type":"uint256","indexed":false,"internalType":"uint256"},{"name":"strikePrice","type":"int256","indexed":false,"internalType":"int256"},{"name":"startTime","type":"uint256","indexed":false,"internalType":"uint256"},{"name":"endTime","type":"uint256","indexed":false,"internalType":"uint256"}],"anonymous":false},{"type":"event","name":"MarketResolved","inputs":[{"name":"marketId","type":"uint256","indexed":true,"internalType":"uint256"},{"name":"winner","type":"uint8","indexed":false,"internalType":"uint8"},{"name":"settlementPrice","type":"int256","indexed":false,"internalType":"int256"}],"anonymous":false},{"type":"event","name":"OwnershipTransferred","inputs":[{"name":"previousOwner","type":"address","indexed":true,"internalType":"address"},{"name":"newOwner","type":"address","indexed":true,"internalType":"address"}],"anonymous":false},{"type":"event","name":"PausedSet","inputs":[{"name":"paused","type":"bool","indexed":false,"internalType":"bool"}],"anonymous":false},{"type":"event","name":"PositionEntered","inputs":[{"name":"marketId","type":"uint256","indexed":true,"internalType":"uint256"},{"name":"option","type":"uint8","indexed":false,"internalType":"uint8"},{"name":"amount","type":"uint256","indexed":false,"internalType":"uint256"}],"anonymous":false},{"type":"event","name":"RebateAccumulated","inputs":[{"name":"dmm","type":"address","indexed":true,"internalType":"address"},{"name":"amount","type":"uint256","indexed":false,"internalType":"uint256"}],"anonymous":false},{"type":"event","name":"RebateClaimed","inputs":[{"name":"claimant","type":"address","indexed":true,"internalType":"address"},{"name":"amount","type":"uint256","indexed":false,"internalType":"uint256"}],"anonymous":false},{"type":"event","name":"SettlementWithdrawn","inputs":[{"name":"marketId","type":"uint256","indexed":true,"internalType":"uint256"},{"name":"netToRelayer","type":"uint256","indexed":false,"internalType":"uint256"},{"name":"fees","type":"uint256","indexed":false,"internalType":"uint256"}],"anonymous":false},{"type":"error","name":"AlreadyResolved","inputs":[]},{"type":"error","name":"AlreadySettled","inputs":[]},{"type":"error","name":"InvalidOption","inputs":[]},{"type":"error","name":"InvalidWinner","inputs":[]},{"type":"error","name":"MarketNotOpen","inputs":[]},{"type":"error","name":"NotDMM","inputs":[]},{"type":"error","name":"NotResolved","inputs":[]},{"type":"error","name":"OnlyAutocycler","inputs":[]},{"type":"error","name":"OnlyRelayer","inputs":[]},{"type":"error","name":"OnlyResolver","inputs":[]},{"type":"error","name":"OwnableInvalidOwner","inputs":[{"name":"owner","type":"address","internalType":"address"}]},{"type":"error","name":"OwnableUnauthorizedAccount","inputs":[{"name":"account","type":"address","internalType":"address"}]},{"type":"error","name":"Paused","inputs":[]},{"type":"error","name":"SafeERC20FailedOperation","inputs":[{"name":"token","type":"address","internalType":"address"}]},{"type":"error","name":"ZeroAddress","inputs":[]}],"bytecode":{"object":"0x60a03461012b57601f61159c38819003918201601f19168301916001600160401b0383118484101761012f5780849260809460405283398101031261012b578051906001600160a01b0382169081830361012b5760208101516001600160a01b038116939084900361012b5760606040830151920151928415610118575f80546001600160a01b031981168717825560405196916001600160a01b03909116907f8be0079c531659141344cd1fd0a4f28419497f9722a3daafe3b4186f6b6457e09080a31561010957608052600655600755611458908161014482396080518181816104a201528181610cae01528181610dd501528181610ed90152818161112501526112bd0152f35b63d92e233d60e01b5f5260045ffd5b631e4fbdf760e01b5f525f60045260245ffd5b5f80fd5b634e487b7160e01b5f52604160045260245ffdfe6080806040526004361015610012575f80fd5b5f3560e01c90816302a15e2a146111e55750806304f3bcec146111bd5780630b78f9c014611166578063142834dd1461100f57806314a289fe14610f8757806316c38b3c14610f2557806322dcd13e14610f085780632f48ab7d14610ec4578063406ef2ef14610ea757806340a8546c14610e8a5780634e543b2614610e435780635c56fbda14610e1b5780635c975abb14610df95780635e318e0714610db35780636548e9bc14610d6c57806367080d8414610bf9578063715018a614610ba25780637680344714610b6a5780637981d45014610a115780637a0ad3b4146109c55780638406c0791461099d5780638da5cb5b146109765780638dcc250c146109595780638fff9f0c1461093c57806395ccea6714610904578063a0a1ddae1461069d578063b1283e77146105dc578063b64e2ecd1461054b578063c8d594db1461052e578063cda3948f14610514578063d6c9e1d21461041a578063dd787a50146103c4578063eb44fdd31461021b5763f2fde38b14610192575f80fd5b34610217576020366003190112610217576101ab61121e565b6101b3611312565b6001600160a01b03168015610204575f80546001600160a01b03198116831782556001600160a01b0316907f8be0079c531659141344cd1fd0a4f28419497f9722a3daafe3b4186f6b6457e09080a3005b631e4fbdf760e01b5f525f60045260245ffd5b5f80fd5b3461021757602036600319011261021757610234611261565b5f8152602081015f9052604081015f9052606081015f9052608081015f905260a081015f905260c081015f905260e081015f905261010081015f905261012081015f9052610140015f90526004355f52600560205260405f20610295611261565b90805491828152600182015460208201926001600160801b0382168452604083019160801c8252600281015491606084016001600160401b0384168152608085018460401c6001600160401b0316815260a08601918560801c63ffffffff16835260c08701938660a01c60ff16855260e08801958760a81c60ff161515875261010089019760b01c60ff161515885260030154986101208901988a600f0b8a52610140019960801d600f0b8a526040519a8b52516001600160801b031660208b0152516001600160801b031660408a0152516001600160401b03166060890152516001600160401b031660808801525163ffffffff1660a08701525160ff1660c086015251151560e085015251151561010084015251600f0b61012083015251600f0b61014082015261016090f35b34610217576020366003190112610217576103dd61121e565b6103e5611312565b6001600160a01b0316801561040b576001600160601b0360a01b60025416176002555f80f35b63d92e233d60e01b5f5260045ffd5b346102175760403660031901126102175761043361121e565b60035460243591906001600160a01b031633036105055760ff600d54166104f6576001600160a01b03165f8181526008602052604090205490919060ff16156104e7576020816104c67fd69e327f15c97d4554d43f26fa3120ab6dda307f9ca2ef9ba1174a4524b23aa19330337f00000000000000000000000000000000000000000000000000000000000000006113b9565b835f52600a825260405f206104dc828254611234565b9055604051908152a2005b6342f8f97d60e11b5f5260045ffd5b6313d0ff5960e31b5f5260045ffd5b6308af1bb760e31b5f5260045ffd5b34610217575f3660031901126102175761052c611295565b005b34610217575f366003190112610217576020600754604051908152f35b346102175760203660031901126102175761056461121e565b61056c611312565b6001600160a01b0316801561040b57805f52600860205260ff60405f205416156105b7575b7fb86ec93fbee77d52ef017883a383ded0ff175fc1249c09dc60f472bb471525765f80a2005b805f52600860205260405f20600160ff198254161790556001600b5401600b55610591565b34610217576020366003190112610217576004355f52600560205261016060405f2080549060ff60018201549160036002820154910154926040519485526001600160801b038116602086015260801c60408501526001600160401b03811660608501526001600160401b038160401c16608085015263ffffffff8160801c1660a0850152818160a01c1660c0850152818160a81c16151560e085015260b01c16151561010083015280600f0b61012083015260801d600f0b610140820152f35b34610217576060366003190112610217576002546024359060043590604435906001600160a01b031633036108f55760ff600d54166104f6576004545f1981146108e15760010192836004556001600160401b0342166001600160401b0382168101906001600160401b0382116108e1578593610718611261565b8681528560208201915f835260408101925f8452606082019086825260808301976001600160401b03169788815260a084019063ffffffff8b16825260c08501905f825260e08601925f84526101008701945f86526101208801998b600f0b8b526101408901995f8b525f52600560205260405f20985189556001890191516001600160801b03166001600160801b03166001600160801b0319835416178255516001600160801b03166107e091906001600160801b0382549181199060801b169116179055565b6002870195516001600160401b03168654925160401b6fffffffffffffffff0000000000000000169163ffffffff60801b905160801b16926001600160601b0360a01b1617171784555160ff1661084d90849081549060ff60a01b9060a01b169060ff60a01b1916179055565b518254915161ffff60a81b1990921690151560a81b60ff60a81b161790151560b01b60ff60b01b161790559151905160801b6001600160801b0319166001600160801b03909116176003919091015560405193845260208401526040830152606082015260807f60aaea45584396c0e5f3c6f1d8fdcded92c017988ade0f5f0d261477c276c9d991a3604051908152602090f35b634e487b7160e01b5f52601160045260245ffd5b6321ea32b160e21b5f5260045ffd5b346102175760403660031901126102175761052c61092061121e565b610928611312565b6024359033906001600160a01b0316611338565b34610217575f366003190112610217576020600b54604051908152f35b34610217575f366003190112610217576020600954604051908152f35b34610217575f366003190112610217575f546040516001600160a01b039091168152602090f35b34610217575f366003190112610217576003546040516001600160a01b039091168152602090f35b34610217576020366003190112610217577f3d5713ce668b61d79d74d86974f85f8f2dca315733a3cc1fa3e8372000688c4e6020600435610a04611312565b80600955604051908152a1005b346102175760603660031901126102175760043560243560443560ff8116808203610217576001546001600160a01b03163303610b5b5760ff600d54166104f657835f52600560205260405f20926002840180546001600160401b03811615610b3d5760ff8160a81c16610b4c5760401c6001600160401b03164210610b3d57600183141580610b32575b610b2357600390940180546001600160801b0316608083901b6001600160801b0319161790557f075615139ef09288348a86c4ccfdd482a2a472b9eabc311f28548d520e51aaf593604093610b0590825460ff60a01b191660a09190911b60ff60a01b16178255565b805460ff60a81b1916600160a81b17905582519182526020820152a2005b6393a5f3c760e01b5f5260045ffd5b506002831415610a9c565b63300b4e3360e21b5f5260045ffd5b6336ab81e160e11b5f5260045ffd5b632b910d6d60e11b5f5260045ffd5b34610217576020366003190112610217576001600160a01b03610b8b61121e565b165f52600a602052602060405f2054604051908152f35b34610217575f36600319011261021757610bba611312565b5f80546001600160a01b0319811682556001600160a01b03167f8be0079c531659141344cd1fd0a4f28419497f9722a3daafe3b4186f6b6457e08280a3005b346102175760603660031901126102175760043560243560ff81168091036102175760035460443591906001600160a01b031633036105055760ff600d54166104f6576001811490811580610d61575b610d5257835f52600560205260405f209260028401546001600160401b03811615610b3d5760401c6001600160401b0316421015610b3d577ffb92558835e96472ae34fed7090915131102cfb5807849d6f61804d81954c09693604093610cd28330337f00000000000000000000000000000000000000000000000000000000000000006113b9565b15610d0f576001016001600160801b03610cf181841682845416611241565b166001600160801b03198254161790555b82519182526020820152a2005b6001610d4d9101610d2d6001600160801b038416825460801c611241565b81546001600160801b031660809190911b6001600160801b031916179055565b610d02565b632a71953160e01b5f5260045ffd5b506002811415610c49565b3461021757602036600319011261021757610d8561121e565b610d8d611312565b6001600160a01b0316801561040b576001600160601b0360a01b60035416176003555f80f35b3461021757602036600319011261021757610dcc611312565b61052c600435337f0000000000000000000000000000000000000000000000000000000000000000611338565b34610217575f36600319011261021757602060ff600d54166040519015158152f35b34610217575f366003190112610217576002546040516001600160a01b039091168152602090f35b3461021757602036600319011261021757610e5c61121e565b610e64611312565b6001600160a01b0316801561040b576001600160601b0360a01b60015416176001555f80f35b34610217575f366003190112610217576020600c54604051908152f35b34610217575f366003190112610217576020600454604051908152f35b34610217575f366003190112610217576040517f00000000000000000000000000000000000000000000000000000000000000006001600160a01b03168152602090f35b34610217575f366003190112610217576020600654604051908152f35b34610217576020366003190112610217576004358015158091036102175760207f40db37ff5c0bdc2c427fbb2078c8f24afea940abac0e3c23bb4ea3bf2da2b21291610f6f611312565b60ff19600d541660ff821617600d55604051908152a1005b3461021757602036600319011261021757610fa061121e565b610fa8611312565b6001600160a01b03165f8181526008602052604090205460ff16610fed575b7f52e93cf52613c9d5654731ee0e83695828cf1cc00dcfcd4085194e83255af16c5f80a2005b805f52600860205260405f2060ff1981541690555f19600b5401600b55610fc7565b3461021757602036600319011261021757600354600435906001600160a01b031633036105055760ff600d54166104f657805f52600560205260405f206002810180549160ff8360a81c16156111575760ff8360b01c166111495760016110859101546001600160801b038160801c9116611234565b9161109560065460075490611234565b8084029084820414841517156108e1576127109004808403918483116108e15760ff60b01b1916600160b01b17909255600c547f8fe7f71feefb6b619d72c91e6558f9504b3cc4abbc98cfe796ca2404b705b9e893604093918291906110fc908390611234565b600c55036111115782519182526020820152a2005b600354610d4d9083906001600160a01b03167f0000000000000000000000000000000000000000000000000000000000000000611338565b62560ff960e81b5f5260045ffd5b639f4a648960e01b5f5260045ffd5b34610217576040366003190112610217577f5c6323bf1c2d7aaea2c091a4751c1c87af7f2864650c336507a77d0557af37a160406004356024356111a8611312565b816006558060075582519182526020820152a1005b34610217575f366003190112610217576001546040516001600160a01b039091168152602090f35b34610217576020366003190112610217576020906001600160a01b0361120961121e565b165f526008825260ff60405f20541615158152f35b600435906001600160a01b038216820361021757565b919082018092116108e157565b906001600160801b03809116911601906001600160801b0382116108e157565b6040519061016082018281106001600160401b0382111761128157604052565b634e487b7160e01b5f52604160045260245ffd5b335f52600a60205260405f2054801561130f57335f52600a6020525f60408120556112e181337f0000000000000000000000000000000000000000000000000000000000000000611338565b6040519081527f8ec2a9ed236322c625516e43eab59fcb8145e38ee8d489a28d0aacaeecc298d660203392a2565b50565b5f546001600160a01b0316330361132557565b63118cdaa760e01b5f523360045260245ffd5b916040519163a9059cbb60e01b5f5260018060a01b031660045260245260205f60448180865af19060015f5114821615611398575b604052156113785750565b635274afe760e01b5f9081526001600160a01b0391909116600452602490fd5b9060018115166113b057823b15153d1516169061136d565b503d5f823e3d90fd5b6040516323b872dd60e01b5f9081526001600160a01b039384166004529290931660245260449390935260209060648180865af19060015f511482161561140a575b6040525f606052156113785750565b9060018115166113b057823b15153d151616906113fb56fea26469706673582212203338de27fc9d4e93dd7f7ca8b979977431d7c01105bef2484eb1e5191e3364e164736f6c634300081d0033","linkReferences":{}},"methodIdentifiers":{"accumulateRebate(address,uint256)":"d6c9e1d2","addDMM(address)":"b64e2ecd","autocycler()":"5c56fbda","claimRebate()":"cda3948f","createMarket(bytes32,uint256,int256)":"a0a1ddae","dmmCount()":"8fff9f0c","dmmRebateAccumulated(address)":"76803447","dmmRebateBps()":"8dcc250c","emergencyWithdraw(address,uint256)":"95ccea67","enterPosition(uint256,uint8,uint256)":"67080d84","getMarket(uint256)":"eb44fdd3","isDMM(address)":"02a15e2a","makerFeeBps()":"c8d594db","markets(uint256)":"b1283e77","nextMarketId()":"406ef2ef","owner()":"8da5cb5b","paused()":"5c975abb","platformFeeBps()":"22dcd13e","relayer()":"8406c079","removeDMM(address)":"14a289fe","renounceOwnership()":"715018a6","resolve(uint256,int256,uint8)":"7981d450","resolver()":"04f3bcec","setAutocycler(address)":"dd787a50","setDmmRebateBps(uint256)":"7a0ad3b4","setFees(uint256,uint256)":"0b78f9c0","setPaused(bool)":"16c38b3c","setRelayer(address)":"6548e9bc","setResolver(address)":"4e543b26","totalAccumulatedFees()":"40a8546c","transferOwnership(address)":"f2fde38b","usdt()":"2f48ab7d","withdrawFees(uint256)":"5e318e07","withdrawSettlement(uint256)":"142834dd"},"id":33}