{"abi":[{"type":"constructor","inputs":[{"name":"_owner","type":"address","internalType":"address"},{"name":"_resolver","type":"address","internalType":"address"},{"name":"_settlement","type":"address","internalType":"address"}],"stateMutability":"nonpayable"},{"type":"function","name":"BTCUSD","inputs":[],"outputs":[{"name":"","type":"bytes32","internalType":"bytes32"}],"stateMutability":"view"},{"type":"function","name":"ETHUSD","inputs":[],"outputs":[{"name":"","type":"bytes32","internalType":"bytes32"}],"stateMutability":"view"},{"type":"function","name":"NUM_TIMEFRAMES","inputs":[],"outputs":[{"name":"","type":"uint256","internalType":"uint256"}],"stateMutability":"view"},{"type":"function","name":"_createMarketExternal","inputs":[{"name":"tfIdx","type":"uint256","internalType":"uint256"},{"name":"pairId","type":"bytes32","internalType":"bytes32"}],"outputs":[],"stateMutability":"nonpayable"},{"type":"function","name":"activeMarketCount","inputs":[],"outputs":[{"name":"","type":"uint256","internalType":"uint256"}],"stateMutability":"view"},{"type":"function","name":"activeMarkets","inputs":[{"name":"index","type":"uint256","internalType":"uint256"}],"outputs":[{"name":"marketId","type":"uint256","internalType":"uint256"},{"name":"endTime","type":"uint256","internalType":"uint256"},{"name":"pairId","type":"bytes32","internalType":"bytes32"}],"stateMutability":"view"},{"type":"function","name":"addPair","inputs":[{"name":"pairId","type":"bytes32","internalType":"bytes32"}],"outputs":[],"stateMutability":"nonpayable"},{"type":"function","name":"checkUpkeep","inputs":[{"name":"","type":"bytes","internalType":"bytes"}],"outputs":[{"name":"upkeepNeeded","type":"bool","internalType":"bool"},{"name":"performData","type":"bytes","internalType":"bytes"}],"stateMutability":"view"},{"type":"function","name":"cyclingPairAt","inputs":[{"name":"index","type":"uint256","internalType":"uint256"}],"outputs":[{"name":"","type":"bytes32","internalType":"bytes32"}],"stateMutability":"view"},{"type":"function","name":"cyclingPairCount","inputs":[],"outputs":[{"name":"","type":"uint256","internalType":"uint256"}],"stateMutability":"view"},{"type":"function","name":"isCyclingPair","inputs":[{"name":"","type":"bytes32","internalType":"bytes32"}],"outputs":[{"name":"","type":"bool","internalType":"bool"}],"stateMutability":"view"},{"type":"function","name":"owner","inputs":[],"outputs":[{"name":"","type":"address","internalType":"address"}],"stateMutability":"view"},{"type":"function","name":"pairTfLastCreated","inputs":[{"name":"","type":"bytes32","internalType":"bytes32"},{"name":"","type":"uint256","internalType":"uint256"}],"outputs":[{"name":"","type":"uint256","internalType":"uint256"}],"stateMutability":"view"},{"type":"function","name":"performUpkeep","inputs":[{"name":"performData","type":"bytes","internalType":"bytes"}],"outputs":[],"stateMutability":"nonpayable"},{"type":"function","name":"pruneResolved","inputs":[],"outputs":[],"stateMutability":"nonpayable"},{"type":"function","name":"renounceOwnership","inputs":[],"outputs":[],"stateMutability":"nonpayable"},{"type":"function","name":"resolver","inputs":[],"outputs":[{"name":"","type":"address","internalType":"contract ChainlinkResolver"}],"stateMutability":"view"},{"type":"function","name":"setResolver","inputs":[{"name":"_resolver","type":"address","internalType":"address"}],"outputs":[],"stateMutability":"nonpayable"},{"type":"function","name":"setSettlement","inputs":[{"name":"_settlement","type":"address","internalType":"address"}],"outputs":[],"stateMutability":"nonpayable"},{"type":"function","name":"settlement","inputs":[],"outputs":[{"name":"","type":"address","internalType":"contract IUpDownSettlement"}],"stateMutability":"view"},{"type":"function","name":"supportedPairs","inputs":[{"name":"","type":"bytes32","internalType":"bytes32"}],"outputs":[{"name":"","type":"bool","internalType":"bool"}],"stateMutability":"view"},{"type":"function","name":"timeframes","inputs":[{"name":"","type":"uint256","internalType":"uint256"}],"outputs":[{"name":"duration","type":"uint256","internalType":"uint256"},{"name":"disputeDuration","type":"uint256","internalType":"uint256"},{"name":"active","type":"bool","internalType":"bool"}],"stateMutability":"view"},{"type":"function","name":"toggleTimeframe","inputs":[{"name":"index","type":"uint256","internalType":"uint256"},{"name":"active","type":"bool","internalType":"bool"}],"outputs":[],"stateMutability":"nonpayable"},{"type":"function","name":"transferOwnership","inputs":[{"name":"newOwner","type":"address","internalType":"address"}],"outputs":[],"stateMutability":"nonpayable"},{"type":"function","name":"withdrawFunds","inputs":[{"name":"token","type":"address","internalType":"address"},{"name":"amount","type":"uint256","internalType":"uint256"}],"outputs":[],"stateMutability":"nonpayable"},{"type":"event","name":"FundsWithdrawn","inputs":[{"name":"token","type":"address","indexed":true,"internalType":"address"},{"name":"amount","type":"uint256","indexed":false,"internalType":"uint256"}],"anonymous":false},{"type":"event","name":"MarketCreated","inputs":[{"name":"marketId","type":"uint256","indexed":true,"internalType":"uint256"},{"name":"pairId","type":"bytes32","indexed":true,"internalType":"bytes32"},{"name":"duration","type":"uint256","indexed":false,"internalType":"uint256"},{"name":"strikePrice","type":"int256","indexed":false,"internalType":"int256"}],"anonymous":false},{"type":"event","name":"MarketCreationFailed","inputs":[{"name":"pairId","type":"bytes32","indexed":true,"internalType":"bytes32"},{"name":"timeframe","type":"uint256","indexed":true,"internalType":"uint256"},{"name":"reason","type":"bytes","indexed":false,"internalType":"bytes"}],"anonymous":false},{"type":"event","name":"OwnershipTransferred","inputs":[{"name":"previousOwner","type":"address","indexed":true,"internalType":"address"},{"name":"newOwner","type":"address","indexed":true,"internalType":"address"}],"anonymous":false},{"type":"event","name":"ResolutionFailed","inputs":[{"name":"marketId","type":"uint256","indexed":true,"internalType":"uint256"},{"name":"reason","type":"bytes","indexed":false,"internalType":"bytes"}],"anonymous":false},{"type":"event","name":"TimeframeToggled","inputs":[{"name":"index","type":"uint256","indexed":true,"internalType":"uint256"},{"name":"active","type":"bool","indexed":false,"internalType":"bool"}],"anonymous":false},{"type":"error","name":"InvalidTimeframeIndex","inputs":[]},{"type":"error","name":"OwnableInvalidOwner","inputs":[{"name":"owner","type":"address","internalType":"address"}]},{"type":"error","name":"OwnableUnauthorizedAccount","inputs":[{"name":"account","type":"address","internalType":"address"}]},{"type":"error","name":"SafeERC20FailedOperation","inputs":[{"name":"token","type":"address","internalType":"address"}]}],"bytecode":{"object":"0x60806040523461029d57604051601f6117d038819003918201601f19168301916001600160401b038311848410176102765780849260609460405283398101031261029d5761004d816102c0565b90610066604061005f602084016102c0565b92016102c0565b916001600160a01b0316801561028a575f80546001600160a01b03198116831782556001600160a01b0316907f8be0079c531659141344cd1fd0a4f28419497f9722a3daafe3b4186f6b6457e09080a3600180546001600160a01b039283166001600160a01b031991821617909155600280549390921692169190911790556100ed6102a1565b61012c8152602081016102588152604082019160018352516003555160045551151560ff8019600554169116176005556101256102a1565b6103848152602081016107088152604082019160018352516006555160075551151560ff80196008541691161760085561015d6102a1565b610e10808252611c20602080840182905260016040909401849052600992909255600a55600b805460ff1990811684179091555f5160206117b05f395f51905f525f527f32d41c4e9208e9772ce80a367124ccd737960056ee865aa5b874030ff6e8929f8054821684179055600f9091527f425e9c3cae60611ba53c0a004e7f4bc2b5fb751757d056b6fb55a1b29a0814d580549091169091179055600e5468010000000000000000811015610276576001810180600e5581101561026257600e5f525f5160206117b05f395f51905f527fbb7b4a454dc3493923482f07822329ed19e8244eff582cc204f8554c3620c3fd909101556040516114db90816102d58239f35b634e487b7160e01b5f52603260045260245ffd5b634e487b7160e01b5f52604160045260245ffd5b631e4fbdf760e01b5f525f60045260245ffd5b5f80fd5b60405190606082016001600160401b0381118382101761027657604052565b51906001600160a01b038216820361029d5756fe60806040526004361015610011575f80fd5b5f3560e01c8061b5ed14610fdb57806304f3bcec14610fb35780630ecd287014610f86578063264f016714610f6b5780633adfe6d014610f2c5780634585e33b14610c905780634a8aae6b146109a15780634e543b261461095e5780635099b78d1461091357806351160630146108eb5780636e04ff0d1461051a578063715018a6146104c357806373db0844146104895780637a6c5fc41461045a578063871589781461043d5780638c52d7051461041b5780638da5cb5b146103f45780638f4e6f37146103b1578063b03233d314610394578063c1075329146102d4578063d8feddb31461029e578063da23d13b1461021c578063df37c8d1146101ed578063f2fde38b146101685763fc2650d81461012a575f80fd5b34610164575f3660031901126101645760206040517fee62665949c883f9e0f6f002eac32e00bd59dfe6c34e92a91c37d6a8322d64898152f35b5f80fd5b34610164576020366003190112610164576101816110c5565b61018961121f565b6001600160a01b031680156101da575f80546001600160a01b03198116831782556001600160a01b0316907f8be0079c531659141344cd1fd0a4f28419497f9722a3daafe3b4186f6b6457e09080a3005b631e4fbdf760e01b5f525f60045260245ffd5b34610164576020366003190112610164576004355f52600f602052602060ff60405f2054166040519015158152f35b34610164576040366003190112610164576004356024358015158091036101645761024561121f565b600382101561028f5760207f442ce5cbf9ea107bc6ec8525862416f2bf6645372837fb5ce260dfc2ccdf6973916005600385020160ff1981541660ff8316179055604051908152a2005b63f052039160e01b5f5260045ffd5b34610164576040366003190112610164576004355f52601060205260405f206024355f52602052602060405f2054604051908152f35b34610164576040366003190112610164576102ed6110c5565b602435906102f961121f565b60018060a01b0316906040519063a9059cbb60e01b5f52336004528060245260205f60448180875af160015f5114811615610375575b826040521561036257816020917feaff4b37086828766ad3268786972c0cd24259d4c87a80f9d3963a3c3d999b0d9352a2005b82635274afe760e01b5f5260045260245ffd5b600181151661038b57833b15153d15161661032f565b823d5f823e3d90fd5b34610164575f366003190112610164576020600c54604051908152f35b34610164576020366003190112610164576103ca6110c5565b6103d261121f565b600280546001600160a01b0319166001600160a01b0392909216919091179055005b34610164575f366003190112610164575f546040516001600160a01b039091168152602090f35b34610164575f3660031901126101645761043361121f565b61043b611292565b005b34610164575f366003190112610164576020600e54604051908152f35b34610164576020366003190112610164576004355f52600d602052602060ff60405f2054166040519015158152f35b34610164575f3660031901126101645760206040517f0b43555ace6b39aae1b894097d0a9fc17f504c62fea598fa206cc6f5088e6e458152f35b34610164575f366003190112610164576104db61121f565b5f80546001600160a01b0319811682556001600160a01b03167f8be0079c531659141344cd1fd0a4f28419497f9722a3daafe3b4186f6b6457e08280a3005b346101645761052836611074565b50506060600c545f5f5b8281106108b957505f600e54925f5b84811061080457508215938415946107fa575b8461057e575b858561057a604051928392151583526040602084015260408301906110db565b0390f35b9092919394506105a661059083611185565b9261059e6040519485611163565b808452611185565b602083019390601f19013685376105bc85611185565b946105ca6040519687611163565b8086526105d9601f1991611185565b015f5b8181106107cf5750505f5f5b82811061078f575050505f5f905b8282106106a757505050604051928391606083019060406020850152518091526080830193905f5b81811061068e57505050601f19828403016040830152602080825194858152019101925f5b81811061066957505061065f925003601f198101835282611163565b908280808061055a565b8451805184526020908101518185015290940193859350604090920191600101610643565b825186526020958601958795509092019160010161061e565b926106b582969397926110ff565b90549060031b1c94855f52600d60205260ff60405f20541615610780575f5b6003811015610769576001906003810260ff6005820154169081610739575b506106ff575b016106d4565b6107336040519761070f89611147565b8989528260208a0152610721816111f0565b9861072c828a61119d565b528761119d565b506106f9565b6107609150895f52601060205260405f20835f5260205260405f2054906003015490611212565b4210158b6106f3565b50939196929450946001905b0190949293946105f6565b93919692945094600190610775565b8060016107a081939998979961112b565b5001544210156107b5575b01959394956105e8565b806107c96107c2856111f0565b948a61119d565b526107ab565b602090604097969597516107e281611147565b5f81525f8382015282828901015201959394956105dc565b8215159450610554565b93610811859493946110ff565b90549060031b1c92835f52600d60205260ff60405f205416156108ad575f5b600381101561089e576003810260ff600582015416908161086e575b5061085a575b600101610830565b946108666001916111f0565b959050610852565b6108959150865f52601060205260405f20835f5260205260405f2054906003015490611212565b4210158961084c565b50939250936001905b01610541565b939250936001906108a7565b60016108c48261112b565b5001544210156108d7575b600101610532565b906108e36001916111f0565b9190506108cf565b34610164575f366003190112610164576002546040516001600160a01b039091168152602090f35b346101645760203660031901126101645760043560038110156101645760036060910280600301549060ff600560048301549201541690604051928352602083015215156040820152f35b34610164576020366003190112610164576109776110c5565b61097f61121f565b600180546001600160a01b0319166001600160a01b0392909216919091179055005b3461016457604036600319011261016457602435600435303303610c5d57600381101561028f57815f52600d60205260ff60405f20541615610c23576001546040516331d98b3f60e01b815260048101849052919060038083020190602090849060249082906001600160a01b03165afa8015610bb2575f90610bf1575b5f93508154916020610a318442611212565b93606460018060a01b0360025416916040519889938492635050eed760e11b84528c600485015260248401528760448401525af1948515610bb2575f95610bbd575b506001546002546001600160a01b039182169116813b15610164575f91608483926040519485938492633f7e633160e21b84528c600485015260248401528c60448401528860648401525af18015610bb257610ba2575b50604051936060850185811067ffffffffffffffff821117610b8e57604052858552602085019384526040850194878652600c54600160401b811015610b8e57806001610b1a9201600c5561112b565b919091610b7b577f96470d480f2259404b8fecb39a2083b696eb8d0c6de7d9766263e5c7f5e4ebef9660409660029251845551600184015551910155865f526010602052835f20905f5260205242835f2055549082519182526020820152a3005b634e487b7160e01b5f525f60045260245ffd5b634e487b7160e01b5f52604160045260245ffd5b5f610bac91611163565b86610aca565b6040513d5f823e3d90fd5b9094506020813d602011610be9575b81610bd960209383611163565b8101031261016457519386610a73565b3d9150610bcc565b506020833d602011610c1b575b81610c0b60209383611163565b81010312610164575f9251610a1f565b3d9150610bfe565b60405162461bcd60e51b81526020600482015260126024820152711c185a5c881b9bdd081cdd5c1c1bdc9d195960721b6044820152606490fd5b60405162461bcd60e51b815260206004820152600b60248201526a37b7363c9031bcb1b632b960a91b6044820152606490fd5b3461016457610c9e36611074565b81019060408183031261016457803567ffffffffffffffff81116101645781019082601f8301121561016457813591610cd683611185565b92610ce46040519485611163565b80845260208085019160051b8301019185831161016457602001905b828210610f1c5750505060208101359067ffffffffffffffff8211610164570182601f8201121561016457803590610d3782611185565b93610d456040519586611163565b82855260208086019360061b8301019181831161016457602001925b828410610eeb5785855f5b8151811015610e2b57610d88610d82828461119d565b5161112b565b50546001546001600160a01b03169190823b15610164575f80600194602460405180948193634f896d4f60e01b83528760048401525af19081610e1b575b50610e15577f0b6c40f553ea5c49707bb641e8151bec6d8664bfc773bb4e33958932eb838217610e0b610df76111b1565b6040519182916020835260208301906110db565b0390a25b01610d6c565b50610e0f565b5f610e2591611163565b86610dc6565b825f5b815181101561043357610e41818361119d565b51906020820191825192815193303b156101645760019460405191634a8aae6b60e01b8352600483015260248201525f8160448183305af19081610edb575b50610ed4577f2028f44e1ad603b7279c02b0dc5115c16e00258366c3142778b41a7481fa61af610eca610eb16111b1565b93519251936040519182916020835260208301906110db565b0390a35b01610e2e565b5050610ece565b5f610ee591611163565b86610e80565b6040848303126101645760206040918251610f0581611147565b863581528287013583820152815201930192610d61565b8135815260209182019101610d00565b34610164576020366003190112610164576060610f4a60043561112b565b50805490600260018201549101549060405192835260208301526040820152f35b34610164575f36600319011261016457602060405160038152f35b34610164576020366003190112610164576020610fa46004356110ff565b90549060031b1c604051908152f35b34610164575f366003190112610164576001546040516001600160a01b039091168152602090f35b3461016457602036600319011261016457600435610ff761121f565b805f52600d60205260405f20600160ff19825416179055805f52600f60205260ff60405f2054161561102557005b805f52600f60205260405f20600160ff19825416179055600e54600160401b811015610b8e5780600161105b9201600e556110ff565b819291549060031b91821b915f19901b19161790555f80f35b9060206003198301126101645760043567ffffffffffffffff811161016457826023820112156101645780600401359267ffffffffffffffff84116101645760248483010111610164576024019190565b600435906001600160a01b038216820361016457565b805180835260209291819084018484015e5f828201840152601f01601f1916010190565b600e5481101561111757600e5f5260205f2001905f90565b634e487b7160e01b5f52603260045260245ffd5b600c5481101561111757600c5f52600360205f20910201905f90565b6040810190811067ffffffffffffffff821117610b8e57604052565b90601f8019910116810190811067ffffffffffffffff821117610b8e57604052565b67ffffffffffffffff8111610b8e5760051b60200190565b80518210156111175760209160051b010190565b3d156111eb573d9067ffffffffffffffff8211610b8e57604051916111e0601f8201601f191660200184611163565b82523d5f602084013e565b606090565b5f1981146111fe5760010190565b634e487b7160e01b5f52601160045260245ffd5b919082018092116111fe57565b5f546001600160a01b0316330361123257565b63118cdaa760e01b5f523360045260245ffd5b51906fffffffffffffffffffffffffffffffff8216820361016457565b519067ffffffffffffffff8216820361016457565b5190811515820361016457565b519081600f0b820361016457565b5f905b600c54808310156114a0576112a98361112b565b505460025460405163eb44fdd360e01b8152600481019290925261016090829060249082906001600160a01b03165afa8015610bb2575f90611393575b60e00151159050611382575f1981019081116111fe576113059061112b565b5061130f8361112b565b919091610b7b57808203611364575b5050600c548015611350575f19016113358161112b565b610b7b5760025f918281558260018201550155600c55611295565b634e487b7160e01b5f52603160045260245ffd5b60028181925484556001810154600185015501549101555f8061131e565b509061138d906111f0565b90611295565b50610160813d8211611498575b816113ae6101609383611163565b8101031261016457604051610160810181811067ffffffffffffffff821117610b8e57604052815181526113e460208301611245565b60208201526113f560408301611245565b604082015261140660608301611262565b606082015261141760808301611262565b608082015260a082015163ffffffff811681036101645760a082015260c08201519160ff831683036101645761014061148d9160e09460c085015261145d858201611277565b8585015261146e6101008201611277565b6101008501526114816101208201611284565b61012085015201611284565b6101408201526112e6565b3d91506113a0565b50905056fea26469706673582212200d713e4f963d741cef91462668653cd10e8b4eeaf2f8f6647a743b91588e5cb964736f6c634300081d0033ee62665949c883f9e0f6f002eac32e00bd59dfe6c34e92a91c37d6a8322d6489","linkReferences":{}},"methodIdentifiers":{"BTCUSD()":"fc2650d8","ETHUSD()":"73db0844","NUM_TIMEFRAMES()":"264f0167","_createMarketExternal(uint256,bytes32)":"4a8aae6b","activeMarketCount()":"b03233d3","activeMarkets(uint256)":"3adfe6d0","addPair(bytes32)":"0000b5ed","checkUpkeep(bytes)":"6e04ff0d","cyclingPairAt(uint256)":"0ecd2870","cyclingPairCount()":"87158978","isCyclingPair(bytes32)":"df37c8d1","owner()":"8da5cb5b","pairTfLastCreated(bytes32,uint256)":"d8feddb3","performUpkeep(bytes)":"4585e33b","pruneResolved()":"8c52d705","renounceOwnership()":"715018a6","resolver()":"04f3bcec","setResolver(address)":"4e543b26","setSettlement(address)":"8f4e6f37","settlement()":"51160630","supportedPairs(bytes32)":"7a6c5fc4","timeframes(uint256)":"5099b78d","toggleTimeframe(uint256,bool)":"da23d13b","transferOwnership(address)":"f2fde38b","withdrawFunds(address,uint256)":"c1075329"},"id":32}